:1000000006308A00152E0000FF00030E8301A100B8
:100010000A08A0008A010408A2007708A300780853
:10002000A4007908A5007A08A600831383120B1E8A
:100030001B288B182C28220884002308F70024088A
:10004000F8002508F9002608FA0020088A00210E89
:100050008300FF0E7F0E09008A110A12792A0A1006
:100060008A100A11820728340C3401340634201017
:1000700020102010C322D4242010201020100A1099
:1000800020102010C327CC27CD275310201020008C
:10009000D4234F17A0224E10C3274E2AD2274C102C
:1000A0008A20552ACF26412AC9214F1045104927B9
:1000B00053002010A022CC22432AD227CE24C320D2
:1000C00020100A1020102022C923492A4126202B63
:1000D00020102000C420D6244410CD2044294922D9
:1000E000201020102005B11B31183019B018201035
:1000F000201020102010201020100001D427522999
:10010000C52920284529452D201020108A18B71808
:100110003018331936102010201020102010200025
:10012000CA27D322A0214126CC22D2275310201047
:100130008A18B7183018B01A341020102010201068
:100140002010000120104927D42252295528C32409
:100150004F2720100A10452CD42252274110A824E2
:100160004E2A291020005A0BB628B9284030DB004F
:10017000BA28DB0101305902DB075B088038DC005C
:10018000DD015C08DE008810F030831688008312E1
:1001900008150000081400000808080E0F39E000D8
:1001A00008100000081400000808080E0F39DF00CE
:1001B00008100030831688008312600EF700F030BC
:1001C000F70577085F04F8007808DF00DF1BC42814
:1001D0005D1C88105D1888140000081100000810CC
:1001E0005E0EDF000F30DF055F08E000600EF039C3
:1001F000F7000F3008057704880000000814002974
:1002000008105E080F39DF005F08E000600EF0396B
:10021000F7000F3008057704880000000814102943
:100220000810080059308400831300080319262998
:100230000130F800F701F70B1B29F80B1A294A3097
:10024000F700F70B21292429800B182908005808EA
:100250000C3A03193229063A03198729023A03197D
:100260008D29DF29DD010130DE008810F030831692
:100270008800831208150000081400000808080E02
:100280000F39E00008100000081400000808080EEC
:100290000F39DF0008100030831688008312600ECB
:1002A000F700F030F70577085F04F8007808DF0002
:1002B000DF1B36295D1C88105D18881400000811AA
:1002C000000008105E0EDF000F30DF055F08E00061
:1002D000600EF039F7000F30080577048800000041
:1002E0000814722908105E080F39DF005F08E0006B
:1002F000600EF039F7000F30080577048800000021
:100300000814822908100230D9001221322A013043
:10031000D9000230DA00B320322ADD011030DE00CD
:100320008810F03083168800831208150000081426
:1003300000000808080E0F39E0000810000008143B
:1003400000000808080E0F39DF000810003083167F
:1003500088008312600EF700F030F70577085F041D
:10036000F8007808DF00DF1B91295D1C88105D18FC
:10037000881400000811000008105E0EDF000F3026
:10038000DF055F08E000600EF039F7000F30080568
:100390007704880000000814CD2908105E080F3982
:1003A000DF005F08E000600EF039F7000F3008054D
:1003B0007704880000000814DD290810322A013073
:1003C000DD005808DE008810F030831688008312A4
:1003D00008150000081400000808080E0F39E00096
:1003E00008100000081400000808080E0F39DF008C
:1003F00008100030831688008312600EF700F0307A
:10040000F70577085F04F8007808DF00DF1BE429B0
:100410005D1C88105D188814000008110000081089
:100420005E0EDF000F30DF055F08E000600EF03980
:10043000F7000F3008057704880000000814202A10
:1004400008105E080F39DF005F08E000600EF03929
:10045000F7000F3008057704880000000814302AE0
:100460000810322A0800831603178C170C1400009A
:10047000000083120C087F390319772A0313D50073
:1004800003170D080313D60003170F080313D70033
:100490005508D8002721560803178D000313570865
:1004A00003178F0083168C170C14000000008312B2
:1004B0000C0D0E0D7F390319772A0313D50003178E
:1004C0000D080313D60003170F080313D7005508B0
:1004D000D8002721560803178D0003135708031768
:1004E0008F008D0A03198F0A0313332A031703138E
:1004F00008000130D900DA00B3208F3003178D00D7
:1005000002308F00031333220430D500FA30D900B3
:100510001221D50B862A8B108A110A121B28201053
:100520004927D42252295528C3244F2720100A10C6
:100530002010A022582A4529CE202010201020006B
:10054000D622CC27C324C4204410B1163510531032
:100550008A13C113A0214F27C624D226C121C9273F
:100560004E00D622CC27C324C42044103D1025269B
:10057000751020108A13C113A0214F27C624D2263C
:10058000C121C9274E002023D522D2202022451088
:10059000D220CE234F100001C32A4527D420A01E0D
:1005A000A0127510201020102005201020102010FF
:1005B0002010201020102010201080222010201049
:1005C000C422CA2020224510201020100A10202802
:1005D000D222D3244F274129202137102000201078
:1005E0002010C422D422CE24C427201020108A290F
:1005F0004927A0244E2A4529D22AD021C9274E00B6
:10060000D622CC27C324C4204410B1163510531071
:100610008A13C113A0214F27C624D226C121C9277E
:100620004E000030831688008312881008110810CD
:10063000A7018B1BA7178B130F30D9001221A71B03
:100640008B170130C2004208033C031C3F2B0330D0
:10065000E000600EF039F7000F30080577048800DD
:1006600000000814332B0810A7018B1BA7178B134E
:100670000530D9001221A71B8B17C20A232B023089
:10068000E000600EF039F7000F30080577048800AD
:10069000000008144B2B0810C2014208033C031C45
:1006A000A72B42082F20C300DD014308DE0088107D
:1006B000F03083168800831208150000081400002B
:1006C0000808080E0F39E0000810000008140000A8
:1006D0000808080E0F39DF00081000308316880064
:1006E0008312600EF700F030F70577085F04F8001A
:1006F0007808DF00DF1B582B5D1C88105D188814FC
:1007000000000811000008105E0EDF000F30DF054A
:100710005F08E000600EF039F7000F30080577043D
:10072000880000000814942B08105E080F39DF00C1
:100730005F08E000600EF039F7000F30080577041D
:10074000880000000814A42B0810C20A4D2B8A113F
:100750000A125D2EA7018B1BA7178B130130D9003E
:10076000DA00B320A71B8B17373003178D0000303A
:100770008F000313A7018B1BA7178B133322A71B13
:100780008B170230C200A7018B1BA7178B13FA30FF
:10079000D9001221A71B8B17C20BC32BA7018B1BE0
:1007A000A7178B130130D900DA00B320A71B8B17D2
:1007B000483003178D0000308F000313A7018B1BF7
:1007C000A7178B133322A71B8B170230C200A70178
:1007D0008B1BA7178B13FA30D9001221A71B8B177D
:1007E000C20BE72BA7018B1BA7178B130130D90076
:1007F000DA00B320A71B8B17593003178D00003088
:100800008F000313A7018B1BA7178B133322A71B82
:100810008B170230C200A7018B1BA7178B13FA306E
:10082000D9001221A71B8B17C20B0B2CAA012A0877
:10083000023C031C782C2A080319252C013A0319C1
:100840003D2C033A0319552C6D2CA7018B1BA717C0
:100850008B130130D900DA00B320A71B8B176A3045
:1008600003178D0000308F000313A7018B1BA71700
:100870008B133322A71B8B176D2CA7018B1BA7177C
:100880008B130130D900DA00B320A71B8B177E3001
:1008900003178D0000308F000313A7018B1BA717D0
:1008A0008B133322A71B8B176D2CA7018B1BA7174C
:1008B0008B130130D900DA00B320A71B8B179030BF
:1008C00003178D0000308F000313A7018B1BA717A0
:1008D0008B133322A71B8B176D2CA7018B1BA7171C
:1008E0008B13C830D9001221A71B8B17AA0A172C0B
:1008F000A7018B1BA7178B130130D900DA00B32097
:10090000A71B8B17A23003178D0000308F00031335
:10091000A7018B1BA7178B133322A71B8B17023042
:10092000C200A7018B1BA7178B13FA30D900122125
:10093000A71B8B17C20B912C8A110A12642EEF3061
:10094000AB00AC01A9012908033C031CC82C03100F
:10095000AB0C0508F039C2002B080F39C20442085D
:100960008500851FC82CAC0A051FC82CAC0A851E43
:10097000C82CAC0A051EC82CAC0AA7018B1BA717F4
:100980008B131430D9001221A71B8B17A90AA32C93
:100990000800831603178C170C14000000000318BE
:1009A000FE2C83120C087F390313C30003170D08B4
:1009B0000313C40003170F080313C500A7018B1B03
:1009C000A7178B134308D8002721A71B8B174408B0
:1009D00003178D000313450803178F0083168C1728
:1009E0000C140000000083120313C20BF82CFB2C24
:1009F00083160317FE2C232D8316031783120C0D69
:100A00000E0D7F390313C30003170D080313C40031
:100A100003170F080313C500A7018B1BA7178B1320
:100A20004308D8002721A71B8B17440803178D0004
:100A30000313450803178F008D0A03198F0A03104B
:100A40000313C20BC92C0800CA010408C9004A10CC
:100A5000831B4A14430EF038C500C507E23EC600AA
:100A6000323EC80043080F39C607C607C807E93E2B
:100A7000C700C707C707420E0F39C707C807C70D0A
:100A8000C80DC809C80D42080F39C807C50D073081
:100A9000C4000A30C807C703031C4A2DC707C60392
:100AA000031C4E2DC607C503031C522DC507C403E6
:100AB000031C562D44308400831307304905491325
:100AC000840748300402031949170008F700031D82
:100AD000712D491B712D491A892DC919712D20308D
:100AE000742DC91549123030F707C3010408C2003C
:100AF0004310831B4314A7018B1BA7178B13770885
:100B0000D8002721A71B8B174208840083134318A2
:100B10008317840A491F612D8A110A12AF2E1030E3
:100B2000C600F701FA01C30CC20C031C9D2D44083A
:100B3000F7070318FA0A4508FA07FA0CF70CF90C3C
:100B4000F80CC60B932D8A110A12C22E780842089F
:100B5000C4006430C5004608F80144020318B32DF0
:100B60004408F700BF2DF7010830C600C40DF70D8B
:100B7000450877020318F700F80DC60BB62D770865
:100B8000C20078083030031DCC2DC31CD92DC319E9
:100B9000D92D431A2030CF2DC31143124314F80727
:100BA000A7018B1BA7178B137808D8002721A71B39
:100BB0008B174208C4000A30C5004608F8014402F9
:100BC0000318E52D4408F700F12DF7010830C600A1
:100BD000C40DF70D450877020318F700F80DC60B92
:100BE000E82D7708C20078083030031DFD2DC319A9
:100BF000072E431C072E431A2030F807A7018B1B32
:100C0000A7178B137808D8002721A71B8B17303024
:100C1000C207A7018B1BA7178B134208D8002721F7
:100C2000A71B8B178A110A120C2F840183131F3004
:100C30008305A801A901AA01AB01AC01AD01AF0177
:100C4000AE01B101B001831603170908C03989004C
:100C500003131F129F1200300317880083128701AD
:100C60008801890101300313B2000230B300033060
:100C7000B4006530B5000430B6000530B70006306A
:100C8000B8006630B9000730BA000830BB00093040
:100C9000BC006730BD00C830BE00BF01C930C00015
:100CA0006830C100F03083168500FF308600831263
:100CB0000508F039C2008500112BC0308B040B16DB
:100CC000831601178312AA2BA7018B1BA7178B135F
:100CD0000130D900DA00B320A71B8B17A03003170F
:100CE0008D0002308F000313A7018B1BA7178B13F6
:100CF0003322A71B8B17A808031DF12E9F242C0855
:100D00000F3C031CF02E32302C07840083130008A4
:100D1000093C031CE52E32302C07840083130008A5
:100D2000FA01AE007A08AF00A7018B1BA7178B133F
:100D30000130D900DA00B320A71B8B17B13003179D
:100D40008D0002308F0003100C300313C200C92441
:100D5000103084002F08C3002E08C200242DB830A4
:100D600003178D0002308F00031414300313C200E8
:100D7000C9242F08C3002E08C2000330C500E83084
:100D8000C4008F2D7908B1007808B000AF08031DAA
:100D9000CD2E2E08053C0318E52EA7018B1BA717A7
:100DA0008B130130D9000230DA00B320A71B8B1758
:100DB000C33003178D0002308F000313A7018B1B74
:100DC000A7178B133322A71B8B172C08033C031D7B
:100DD000EB2E0130A8009F242C080F3C0318EB2EAB
:100DE0007B2E280BA32FA7018B1BA7178B1301307A
:100DF000D900DA00B320A71B8B17CC3003178D0066
:100E000002308F00031009300313C200C9242D08DB
:100E1000C2001B30C300A62DD13003178D00023055
:100E20008F00031417300313C200C924861B5B2FE5
:100E3000861B322FA7018B1BA7178B130130D900FC
:100E4000DA00B320A71B8B17DE3003178D000230AA
:100E50008F000313A7018B1BA7178B133322A71B2C
:100E60008B17182F861F5A2FA7018B1BA7178B13C1
:100E70000130D900DA00B320A71B8B17EF3003171E
:100E80008D0002308F000313A7018B1BA7178B1354
:100E90003322A71B8B170430C200A7018B1BA71797
:100EA0008B13FA30D9001221A71B8B17C20B4D2FC1
:100EB0005A2F322F162F9F242C080F3C031C832FF0
:100EC0002C080F3C031D832FA7018B1BA7178B1327
:100ED0000130D900DA00B320A71B8B1700300317AD
:100EE0008D0003308F000313A7018B1BA7178B13F3
:100EF0003322A71B8B17FF30AD00A8019F242C08BD
:100F00000F3C03187E2F3108C200C20AC203031926
:100F1000932FA7018B1BA7178B13FF30D90012212A
:100F2000A71B8B17862FA7018B1BA7178B133008C6
:100F3000D9001221A71B8B17AD0A2D08323C0318CC
:0A0F4000A22FAD01F12E7B2E6300FD
:04400E00F420FF3E5D
:00000001FF
;PIC16F887
;CRC=38CB  CREATED="17-Nov-20 21:42"
